:03000000020006F5
:03005F0002000399
:0300030002008E6A
:20006200AE82AF83C3E49E74808FF063F08095F05019758901758CFC758A17D28C308DFD79
:20008200C28CC28D1EBEFF011F80D922D2A075A0019000FA12006275A0029000FA120062B0
:0B00A20075A0049000FA12006280E3D9
:06003500E478FFF6D8FD9F
:200013007900E94400601B7A009000B1780175A000E493F2A308B8000205A0D9F4DAF275E2
:02003300A0FF2C
:20003B007800E84400600A790175A000E4F309D8FC7800E84400600C7900900001E4F0A3C3
:04005B00D8FCD9FAFA
:0D0006007581071200ADE582600302000362
:0400AD007582002236
:00000001FF
