:04000000020029329F
:01000B0032C2
:0100130032BA
:01001B0032B2
:0300230002008B4D
:0900820075080075280002002633
:0300260002014B89
:20008B00C0E0C000C0D075D000E5282408F8A69974E0252840020528C298D0D0D000D0E026
:2000AB0032AF82C2AF8F9910990280FBD2AF22AC82AD83AEF0FFEC4D4E4F601E758CFC75AF
:2000CB008A17D28C308DFDC28CC28D1CBCFF091DBDFF051EBEFF011F80DC22AD82AE83AF79
:2000EB00F07B007C00EB2DF8EC3EF98F02888289838AF012020A603CC3EB9420EC6480943A
:20010B00805031EB2DF8EC3EF98F020BBB00010C888289838AF012020AF582C007C006C0CA
:20012B0005C004C0031200ACD003D004D005D006D00780B175820D1200AC75820A0200AC9F
:20014B0075A00775B0FF75985075A890758921758DF3D28E752948752A65752B6C752C6CD3
:20016B00752D6F752E20752F7475306875316575327275336575342E75352E75362E753716
:20018B0020753847753965753A6E753B65753C72753D61753E6C753F2075404B7541657542
:2001AB00426E75436F75446275456975462E75470075480090022A75F0801200E6E52860B7
:2001CB00FC1528E5282408F98707BF3104B2A08025BF3204B2A1801EBF3304B2A28017BFAA
:1F01EB00340B90002975F0401200E68009900001E4F5F01200BAE5282408F8760080BECC
:07022A0053746172743A0085
:06005800E478FFF6D8FD7C
:200036007900E94400601B7A00900231780175A000E493F2A308B8000205A0D9F4DAF2753D
:02005600A0FF09
:20005E007800E84400600A790175A000E4F309D8FC7800E84400600C7900900001E4F0A3A0
:04007E00D8FCD9FAD7
:0D002900758148120226E582600302002660
:1C020A0020F71430F6148883A88220F507E6A88375830022E280F7E49322E02203
:0402260075820022BB
:00000001FF
