:040000000200313297
:01000B0032C2
:0100130032BA
:01001B0032B2
:0100230032AA
:03002B0002009040
:06008A0075080002002EC3
:03002E000200D2FB
:20009000C0E0C0D00508E50824385003750800C2CFD0D0D0E032AE82AF83C3E49E74808FBD
:2000B000F063F08095F05019758901758CFC758A17D28C308DFDC28CC28D1EBEFF011F803D
:2000D000D92275C80075CCAF75CD3C75CAAF75CB3CD2AFD2ADD2CA75A001AE087F0075099B
:1E00F000148F0A8E828F8312015BE5828583F045F070E763A0019000641200A680DCBE
:06006000E478FFF6D8FD74
:20003E007900E94400601B7A00900195780175A000E493F2A308B8000205A0D9F4DAF275D2
:02005E00A0FF01
:20010E00E509450A60467A01E50925E0F509E50A334012F50AE5829509E583950A40030AB6
:20012E0080E6C3E50A13F50AE50913F509C3E5829509F5F0E583950A4005F58385F082C35D
:0D014E00E50A13F50AE50913F509DAE122C7
:200066007800E84400600A790175A000E4F309D8FC7800E84400600C7900900001E4F0A398
:04008600D8FCD9FACF
:0D00310075810A120191E582600302002E24
:20015B00C2D5E58330E70DD2D5E4C39582F582E49583F583E50A30E70BE4C39509F509E4D9
:16017B00950AF50A12010E30D50BE4C39582F582E49583F58322D4
:040191007582002251
:00000001FF
